:020000040800F2
:100000001807002001010008AB2F00088D2100080F
:10001000A92F0008D30A0008253C000800000000B2
:10002000000000000000000000000000A9360008E9
:10003000D50A00080000000071360008613700088A
:100040001B0100081B0100081B0100081B01000820
:100050001B0100081B0100081B0100081B01000810
:100060001B0100081B0100081B0100081B01000800
:100070001B0100081B0100081B0100081B010008F0
:100080001B0100081B0100081B0100081B010008E0
:100090001B0100081B0100081B0100081B010008D0
:1000A0001B0100081B0100081B0100081B010008C0
:1000B0001B010008C53700081B0100081B010008D0
:1000C0001B0100081B0100081B0100081B010008A0
:1000D0001B0100081B0100081B010008193C000857
:1000E0001B0100081B0100081B010008DFF80CD0F1
:1000F00000F08CFC00480047054D00081807002060
:100100000648804706480047FEE7FEE7FEE7FEE7B1
:10011000FEE7FEE7FEE7FEE7FEE7FEE7C33700087F
:10012000ED000008202A04DB203A21FA02F0002129
:10013000704721FA02F3D040C2F1200291400843F7
:1001400019467047D2B201E000F8012B491EFBD2DC
:1001500070470022F6E710B513460A4604461946D2
:10016000FFF7F0FF204610BDF0B480EA0102D40F83
:100170004200B2EB410F02D20246084611464A0045
:1001800042D0C30DDDB2C1F3C752AD1A202D35DA0E
:10019000C1F3160141F4000204B15242C5F1200638
:1001A00002FA06F12A411044B3EBD05F23D0C4B168
:1001B000012DA0EBC35009DCF0BC4FF0004202EA75
:1001C000C352DBB200F5000000F04DBB400000F16F
:1001D000807000EBC350A0F1807040EAD1704900FC
:1001E00009E0490841EAC071A0EBC35000F50000E6
:1001F000400800EBC350F0BC00F02CBB6142012270
:1002000002EB4101001BF6E7F0BC704781F00041B2
:10021000AAE780F00040A7E780EA010210B502F0EB
:100220000043400022D04A001FD0010E01EB1261B2
:10023000C0F35600C2F3560240F4000042F400023C
:10024000A0FB022000047F39140400D0401C50EAB7
:10025000124001D44000491EC2B20C0604EBD0107B
:10026000401C4008802A02D003E0002010BD20F08E
:100270000100002900DA0020184310BD30B480EAE4
:10028000010202F0004530F0004221F0004013D09E
:1002900090B1C30DD40DC2F31601C0F31600E41AD9
:1002A00041F4000140F400027D34914201D3641C0A
:1002B00000E04900002C02DA30BC002070474FF407
:1002C00000000023914201D3891A034340084FEAFA
:1002D0004101F7D151B1914202D14FF0004105E007
:1002E00002D24FF0010101E06FF0010103EBC450B5
:1002F000284430BC00F0AEBA420005D0C0F3C7526B
:100300005242914201DC0020704700EBC15070471F
:100310002DE9FE4F804681EA0300C00F0C46009095
:1003200021F0004123F00045B8EB0200A94105D2BD
:100330004046214690461C460B46024623F00040AC
:10034000104347D0270DC7F30A00C3F30A510290A8
:10035000401A019040286BDAC3F3130040F4801B6D
:100360000098924620B10023D2EB030A63EB0B0BFB
:1003700001985946C0F14002504600F04AFA06463C
:100380000D4650465946019A00F052FA10EB08000B
:100390006141002487EA115284EAE7731A4340D08E
:1003A000009A62B3019A012A4FEA075215DC001B3A
:1003B00061EB02014FF0004202EA0752CDE9004230
:1003C000001C41F5801132462B4600F089FA03B03B
:1003D000BDE8F08F40462146F9E7001B61EB0201C2
:1003E000001C41F5801300185B412018A2F500178E
:1003F00047EB030140EAD570B6196D4111E06D0875
:100400004FEA360645EAC0754FEA0752001B61EB1A
:100410000201001C41F5801149084FEA3000001923
:10042000514132462B4603B0BDE8F04F00F049BAC7
:100430000098012240000023D0EB020263EBE0733E
:10044000009821464FEAE074B8EB000061EB04012C
:10045000E9E783F000435BE781F0004158E72DE9CD
:10046000FE4F81EA030404F0004421F000410094AF
:100470004FF0000B23F0004350EA01045ED052EA33
:1004800003045BD0C3F30A54C1F30A552C44A4F20D
:10049000F3340194A0FB0254C1F3130141F4801121
:1004A000C3F3130343F4801301FB024400FB034E28
:1004B000840A970A44EA815447EA8357A4FB0768F1
:1004C00002958D0A05FB07854FEA932C04FB0C541B
:1004D0002705029D4FEA065847EA1637B5EB08058F
:1004E0006EEB070C870E920E47EA811742EA8312E1
:1004F000A7FB0201B6EB0B0164EB00042B0D43EAF2
:100500000C335E1844EB1C50DA465146E7FB0201FF
:10051000C5F313044FEA0B3343EA14534FEA043292
:10052000019C43EA0603A4F10C040294009CCDE96B
:1005300000B400F0D5F903B0BDE8F08F002001460B
:10054000F9E72DE9F04D81EA030404F0004B21F0B6
:10055000004514464FF0000A23F0004150EA05021E
:1005600020D054EA01021DD0C5F30A570246C5F354
:100570001303C1F31300C1F30A5640F4801543F48A
:100580008013A7EB0608101BD64608F2FD3873EB64
:10059000050002D308F1010801E092185B41B8F1AF
:1005A000000F03DA00200146BDE8F08D00204FF473
:1005B0008011064684460EE0171B73EB050705D332
:1005C000121B63EB050306434CEA010C49084FEA92
:1005D000300092185B4150EA0107EDD152EA030066
:1005E00012D082EA040083EA0501084305D0101BFB
:1005F000AB4106D20122002306E000224FF0004367
:1006000002E06FF0010253101AEB06004CEB0851A8
:1006100010EB0A0041EB0B01BDE8F04D00F051B9C1
:10062000C10F80EAE0700844CA079623002100F059
:100630001AB90EB5C10F80EAE0700844CA0700215C
:1006400040F233438DE80E000A460B4600F048F9AD
:1006500003B000BD00F0004220F00040C10DC0F327
:10066000160040F400007F2901DA00207047962927
:1006700003DCC1F19601C84001E096398840002AA8
:10068000F4D04042704770B5C1F30A5201F0004502
:100690000024C1F3130140F2FF3341F480119A4268
:1006A00001DA002070BD40F233439A42A2F2334295
:1006B00003DC5242FFF736FD00E090402C43F1D0BE
:1006C000404270BDC1F30A5210B5C1F3130140F2AC
:1006D000FF3341F480119A4201DA002010BD40F24C
:1006E00033439A42A2F2334203DC5242FFF71AFD2F
:1006F00010BD904010BD00F0004230F000400AD024
:10070000C10D01F56071C0F3160042EA0151C20843
:1007100040071143704700200146704730B5041E62
:1007200071F1000404DB4FF00044404264EB01012E
:10073000141E73F1000405DB1C464FF000435242C7
:1007400063EB04038B4208BF824230BD01F00043DB
:1007500030B421F0004150EA010206D00A0DA2F5A2
:100760006072C1F31301002A02DC30BC0020704724
:10077000440F44EAC104C100E01830BC00EBC25091
:1007800000F068B830B50B46014600202022012455
:1007900009E021FA02F59D4205D303FA02F5491B4F
:1007A00004FA02F52844151EA2F10102F1DC30BD65
:1007B0002DE9F05F0546002092469B468846064696
:1007C000814640241BE02846414647462246FFF723
:1007D000A9FC53465A46C01A914110D311461846F7
:1007E000224600F016F82D1A67EB01084F46224604
:1007F0000120002100F00DF817EB00094E41201EEA
:10080000A4F10104DFDC484631462A464346BDE8F0
:10081000F09F202A04DB203A00FA02F10020704702
:100820009140C2F1200320FA03F31943904070472E
:10083000202A06DBCB17203A41FA02F043EAE073A4
:1008400006E041FA02F3D040C2F120029140084391
:10085000194670470029A8BF7047401C490008BFCF
:1008600020F00100704710B4B0FA80FC00FA0CF0E0
:1008700050EA010404BF10BC704749B1CCF1200418
:1008800021FA04F411FA0CF118BF012121430843A5
:10089000A3EB0C01CB1D4FEA00614FEA102042BFD1
:1008A000002010BC704700EBC35010440029A4BFC7
:1008B00010BC7047401C490008BF20F0010010BC6C
:1008C000704710B5141E73F1000408DA401C41F1A2
:1008D000000192185B411A4301D120F0010010BDC4
:1008E0002DE9F04D92469B4611B1B1FA81F202E03A
:1008F000B0FA80F220329046FFF78BFF04460F4695
:1009000040EA0A0041EA0B0153465A46084313D015
:10091000114653EA010019D0C8F140025046FFF7D2
:1009200001FC05460E46504659464246FFF771FF08
:10093000084305D0012004E020463946BDE8F08D8B
:100940000020054346EAE0762C4337430A986305C6
:10095000E40AA0EB08000022FD0A44EA47540A30EA
:1009600002D500200146E9E7010510196941DDE9DA
:10097000084500196941BDE8F04DA2E770B521F0C6
:10098000004303430CD0C1F30A550024D5EB040502
:1009900064EB0403D617AD1AB34102DB0020014615
:1009A00070BD201841EB025170BDC1F30A52C1F372
:1009B000130140F2FF3341F480119A4202DA002021
:1009C0000146704740F233439A42A2F2334202DCBE
:1009D0005242FFF7A7BBFFF71CBF000030B5041E53
:1009E00071F1000404DB4FF00044404264EB01016C
:1009F000141E73F1000405DB1C464FF00043524205
:100A000063EB0403994208BF904230BD064C074D8A
:100A100006E0E06840F0010394E8070098471034CE
:100A2000AC42F6D3FFF766FB7858000898580008E8
:100A30002DE9F04D00231A461B1A8A4103DB0020E2
:100A40000146BDE8F08DC1F30A52C1F3130141F430
:100A500080154FF0000BD10702D100186D41521ED6
:100A60000027044640F2FF11384601EB620A3E4679
:100A70008046024600204FF48011FFF753FBC21955
:100A80007141BB1846EB0100B4EB030C75EB000C95
:100A900004D3E41A65EB000517460E46241908F145
:100AA00001006D4180463428E3DDF91946EB06006C
:100AB000091BA84103D24FF0FF32134601E0002288
:100AC00013461BEB070046EB0A51BDE8F04DFFF75C
:100AD000F8BEFEE7704772B6FEE710B590F8211039
:100AE0000022022905D00421816380F82020012002
:100AF00010BD01680B6823F00E030B6001680B68E2
:100B000023F001030B6090F84030C46B012101FA1F
:100B100003F3636080F8211080F82020104610BD98
:100B200010B590F821100024022903D0042181631C
:100B300001243DE001680A6822F00E020A600168A3
:100B40000A6822F001020A601A4A0168914201D142
:100B5000012121E0174A1432914201D110211BE0FA
:100B6000144A2832914201D1891515E0114A3C32CC
:100B7000914201D189140FE00E4A5032914202D1C4
:100B80004FF4803108E00B4A6432914202D14FF4B5
:100B9000801101E04FF08071064A083A516001214E
:100BA00080F82110002180F82010416B01B18847A6
:100BB000204610BD0800024070B5044600F004F95C
:100BC0000546601C02D004480078044400F0FCF89C
:100BD000401BA042FAD370BD600000202DE9F84F01
:100BE000DFF8B891002409F1040A0AF1040B234646
:100BF0000F270BF1040EC9E00125A5402A40AA42A7
:100C00007DD1674ED1F804C0ACEB0608B44532D0B4
:100C100014DCBCF1030F3AD009DCBCF1000F2AD080
:100C2000BCF1010F1CD0BCF1020F31D11DE0BCF1B1
:100C3000110F17D0BCF1120F2AD119E0B8F5881F97
:100C400019D006DCB8F5803F15D0B8F5801F1FD14C
:100C500011E0B8F5001F0ED0B8F5041F18D10AE056
:100C6000CB6815E0CB681B1D12E0CB6808330FE0A2
:100C7000CB680C330CE08B682BB1012B4FF00803D1
:100C800003D0456104E0042302E0056100E0002395
:100C9000FF2A01D8064601E000F104064FEA840568
:100CA00001D9A5F12005D6F8008007FA05FC28EA4D
:100CB0000C0803FA05F548EA0508C6F800804D68F7
:100CC000ED0062D5374DAE6946F00106AE61AD6903
:100CD00024F0030605F001050095334D06EB050CE5
:100CE000DCF80850A607360F07FA06F825EA0805CB
:100CF000DFF8B880404503D14FF0000817E044E02A
:100D0000DFF8AC80404502D14FF001080FE0DFF87A
:100D1000A480404502D14FF0020808E0DFF8988037
:100D2000404502D14FF0030801E04FF0040808FAF3
:100D300006F848EA0508CCF808804D68D9F8006044
:100D4000ED034D4601D5164300E096432E604D68F5
:100D5000DAF80060AD03554601D5164300E096432E
:100D60002E604D68DBF80060ED025D4601D516434C
:100D700000E096432E604D68DEF80060AD027546D7
:100D800001D5164300E096432E60641C0D682A4688
:100D9000E5407FF431AFBDE8F88F0000000401406A
:100DA0000000111000100240000001400008014046
:100DB000000C014000100140001401400AB1016123
:100DC00070470904FBE70000014880687047000095
:100DD00060000020024881680278114481607047F9
:100DE00060000020074810B5016841F01001016063
:100DF000032000F075F8002000F006F800F024F859
:100E0000002010BD0020024070B50D4D04464FF487
:100E10007A712878B1FBF0F00A490968B1FBF0F06B
:100E200000F0F8FA48B9102C07D200222146501ED3
:100E300000F036F800206C6070BD012070BD00002D
:100E4000600000206C0000200C4808B5816941F06A
:100E500001018161816901F001010091C16941F0E5
:100E60008051C161C06900F0805000900448416821
:100E700021F0E06141F00071416008BD00100240C6
:100E800000000140002809DB00F01F020121914011
:100E90004009800000F1E020C0F800117047000018
:100EA000F0B40E4B1B680C46C3F30223C3F10705D5
:100EB000042D00D90425191D072901D2002300E0C3
:100EC000DB1E012606FA05F1491E214099409E408D
:100ED000761E16403143F0BC02F0CABE0CED00E0B5
:100EE000064900F0070208684FF6FF03184040EA81
:100EF0000220034A10430860704700000CED00E038
:100F00000000FA052DE9F0470F46050061D0434E79
:100F1000306800F00700B84209D2306820F00700BE
:100F200038433060306800F00700B84251D128687B
:100F30003B4C810712D5400703D5606840F4E06060
:100F400060602878000703D5606840F460506060F6
:100F50006068A96820F0F000084360602878C00746
:100F600028D06868012810D02168022810D089078D
:100F700000292EDA616821F0030101436160FFF767
:100F800023FF804641F288390DE021688903EFE7AD
:100F90008901EDE7FFF718FFA0EB0801494502D9E9
:100FA0000320BDE8F0876068696800F00C00B0EBD2
:100FB000810FEFD1306800F00700B8420BD93068DC
:100FC00020F0070038433060306800F00700B84276
:100FD00001D00120E5E72878400705D56068E96879
:100FE00020F4E060084360602878000706D5606858
:100FF000296920F4605040EAC100606000F038F8D0
:101000006168084AC1F30311515CC8400649086091
:1010100006480068FFF7F8FE0020C2E70020024003
:10102000001002406C5700086C0000206400002093
:101030000448054900684968044AC1F30221515C2B
:10104000C84070476C000020001002407C57000828
:101050000448054900684968044AC1F3C221515C4B
:10106000C84070476C000020001002407C57000808
:1010700012A185B00FC98DE80F0014A0144A0068B2
:1010800004905168134801F00C03042B10D0082B76
:101090000ED1C1F38343C9031DF803000AD551687B
:1010A00004AAC1F34041515C0A4A5043B0FBF1F03D
:1010B00005B0704708494843FAE7000002030405F9
:1010C000060708090A0B0C0D0E0F10100102000094
:1010D0000010024000127A0000093D002DE9F84F8F
:1010E000040070D02078C04DC00749D06868C0F3B4
:1010F0008100012807D06868C0F38100022809D167
:101100006868C00306D52868800339D56068002860
:10111000E7D035E06068B0F5803F0BD010B1B0F596
:10112000A02F11D0286820F480302860286820F48F
:10113000802002E0286840F480302860606890B128
:10114000FFF742FE06460AE0286840F48020286047
:10115000F0E700BFFFF738FE801B642873D82868CB
:101160008003F7D50CE0FFF72FFE064605E000BF31
:10117000FFF72AFE801B6428F0D828688003F7D484
:1011800020789A4E80074FF001094FF0000839D5BA
:10119000686810F00C0F07D06868C0F3810002285F
:1011A00009D16868C00306D42868800714D520696F
:1011B000012808D110E02069B0B1C6F80090FFF70F
:1011C00003FE074605E00AE1FFF7FEFDC01B02280B
:1011D000C4D828688007F7D52868616920F0F8002E
:1011E00040EAC10028600DE0C6F80080FFF7ECFD82
:1011F000074604E0FFF7E8FDC01B022823D8286853
:101200008007F7D4207800072CD57948A169D9B197
:10121000C0F80090FFF7D8FD074604E0FFF7D4FDC3
:10122000C01B02280FD8686A8007F7D571484FF4B1
:10123000FA510068B0FBF1F0009000BF0098411E29
:101240000091FAD20EE080E0C0F80080FFF7BCFD0C
:10125000074604E0FFF7B8FDC01B022875D8686A8E
:101260008007F7D42078400760D5E8690027C000E0
:1012700008D4E86940F08050E861E869012700F08F
:10128000805000905C480168C90513D4016883460A
:1012900041F480710160FFF797FD824606E000BFD0
:1012A000FFF792FDA0EB0A0064284ED8DBF800009F
:1012B000C005F5D5E06801280AD008B1052813D08B
:1012C000286A20F001002862286A20F0040002E069
:1012D000286A40F001002862E06841F2883B98B13A
:1012E000FFF772FD82460BE0286A40F00400286296
:1012F000EEE700BFFFF768FDA0EB0A0159455AD899
:10130000286A8007F6D50CE0FFF75EFD824605E00F
:10131000FFF75AFDA0EB0A0159454CD8286A80070F
:10132000F6D41FB1E86920F08050E861E06988B325
:101330006968C1F38101022944D00228C6F860809F
:1013400004D0FFF741FD044638E034E0FFF73CFDF0
:10135000074604E0FFF738FDC01B02282BD8286899
:101360008001F7D4206AB0F5803F05D16868A16894
:1013700020F4003008436860D4E908010843696834
:1013800021F4741108436860C6F86090FFF71CFDF3
:10139000044606E025E000BFFFF716FD001B02280B
:1013A00009D828688001F7D51BE000BFFFF70CFDC6
:1013B000001B022802D90320BDE8F88F28688001AD
:1013C000F4D40EE00128F7D06868226A00F4803176
:1013D000914204D1616A00F47010884201D001206A
:1013E000EAE70020E8E70000001002400000424267
:1013F000800442426C000020007000404FF0E02169
:101400000428086903D020F004000861704740F008
:101410000400FAE710B5401EB0F1807F01D301202F
:1014200010BD4FF0E02460610F21601702F020FC36
:101430000020A06107202061002010BD7047704788
:1014400010B590F83C20012A22D0012280F83C20DF
:10145000CA688C6822F4407222434C6822F480628D
:1014600022430C6822F4006222430C6922F4805269
:1014700022434C6922F400522243C969002322F41A
:1014800080420A4301684A6480F83C30002010BD65
:10149000022010BD70B590F83C20012A26D001240E
:1014A00080F83C40022280F83D2003685A689D681D
:1014B00022F070060A6832435A600D4B02689A4265
:1014C00008D0B2F1804F05D00A4B9A4202D00A4BA5
:1014D0009A4204D1496825F080031943916080F84D
:1014E0003D40002180F83C10084670BD022070BDD0
:1014F000002C0140000400400008004010B504002A
:1015000003D094F83D0010B107E0012010BD002089
:1015100084F83C00204600F01FF8022084F83D00CB
:10152000211D206802F054F9012084F8460084F857
:101530003E0084F83F0084F8400084F8410084F8BD
:10154000420084F8430084F8440084F8450084F89D
:101550003D00002010BD000008B500680B4988421E
:1015600012D10B48C16941F00201C161C06900227A
:1015700000F00200009011461D20FFF791FCBDE82D
:1015800008401D20FFF77EBC08BD0000000400409D
:101590000010024090F83D10012901D00120704751
:1015A000022180F83D100168CA6842F00102CA6059
:1015B00000680B49884208D0B0F1804F05D0094936
:1015C000884202D00849884204D1816801F00701AD
:1015D000062903D0016841F0010101600020704735
:1015E000002C0140000400400008004070B5044693
:1015F00090F83C00012817D0012584F83C500220C7
:1016000084F83D002068826822F0770222F47F424D
:1016100082600868502830D00DDC20284DD005DCD1
:1016200098B310283BD148E0022070BD302844D048
:10163000402834D139E0602828D0702806D0B0F591
:10164000805F2CD0B0F5005F29D10AE0CB68D1E9EA
:101650000121206802F0FFF82068816841F07701DD
:1016600009E0CB68D1E90121206802F0F4F8206894
:10167000816841F48041816011E0CA68496820684E
:1016800002F09EF95021206807E016E0CA68496818
:10169000206802F0A6F96021206802F0E6F884F8DC
:1016A0003D50002084F83C0070BDCA68496820683D
:1016B00002F086F940212068EFE7226801461046D3
:1016C000EBE72DE9F0410D46040003D094F83D000E
:1016D00018B108E00120BDE8F081002084F83C004A
:1016E000204600F041F8022084F83D00206881681F
:1016F00044F2070291438160211D206802F068F8DE
:10170000226890689169166A2B68AF69034340F2BA
:101710000330814341EA0721A868EF6908434FF687
:10172000FC418843E96840EA0720014328692F6AA1
:10173000000140EA0730084369686D6926F0220617
:1017400046EA0515294393602268906154F8460BD8
:101750000162012004F81F09E0752076E076207709
:10176000A0750020B7E7000000B585B0002100910A
:1017700001910291039101681A48B1F1804F1BD089
:10178000194A914216D1C16941F00401C161C16990
:1017900001F004010491816941F0080181618069CF
:1017A000694600F008000490C02000900F4800BF78
:1017B000FFF714FA05B000BDC16941F00101C16134
:1017C000C16901F001010491816941F00401816165
:1017D0008069694600F004000490032000900448EA
:1017E000E6E700000010024000080040000C014045
:1017F0000008014070B590F83E60044690F83F50F4
:1018000090F8423090F84320022021B104290ED0F4
:10181000012E1BD114E0012E18D1012B16D184F812
:101820003E0084F8420001220021206820E0012DC2
:101830000CD1012A0AD184F83F0084F8430014E057
:10184000012D03D1012B01D1012A01D0012070BD4E
:1018500084F83E0084F83F0084F8420084F8430096
:1018600001220021206801F0E9FF01220421206803
:1018700001F0E4FF2068016841F0010101600020EF
:1018800070BD704770B50446006801694FF00005EF
:10189000C943890715D4C168C943890711D4E91E12
:1018A000016101202077206880698007204602D0EE
:1018B000FFF7E7FF04E000F0BFF8204600F062F910
:1018C000257720680169C943490717D4C168C9430E
:1018D000490713D46FF004010161022020772068CA
:1018E000806910F4407F204602D0FFF7CAFF04E071
:1018F00000F0A2F8204600F045F92577206801693C
:10190000C943090716D4C168C943090712D46FF047
:1019100008010161042020772068C0698007204603
:1019200002D0FFF7AEFF04E000F086F8204600F09A
:1019300029F9257720680169C943C90617D4C16808
:10194000C943C90613D46FF0100101610820207744
:101950002068C06910F4407F204602D0FFF791FF55
:1019600004E000F069F8204600F00CF925772068C3
:101970000169C943C90708D1C168C943C90704D16E
:10198000891E0161204600F04DF920680169C943B4
:10199000090609D4C168C943090605D46FF080015E
:1019A00001612046FFF74AFD20680169C9434906E5
:1019B00009D4C168C943490605D46FF040010161EB
:1019C000204600F0E3F920680169C94389060BD479
:1019D000C168C943890607D46FF020010161204620
:1019E000BDE87040FFF72BBD70BD000000B585B0AD
:1019F0000021009101910291039100680B498842F6
:101A000012D10B48816941F0040181618069694606
:101A100000F0040004904FF4106000900220019048
:101A200003900448FFF7DAF805B000BD002C014030
:101A30000010024000080140704770B5044690F85D
:101A40003C000D4601280AD0012084F83C0042B138
:101A5000042A18D0082A2AD00C2A4DD139E00220B5
:101A600070BD206801F00AFF2068816941F008011B
:101A700081612068816921F00401816120688169A8
:101A80002A69114311E0206801F020FF2068816974
:101A900041F4006181612068816921F48061816184
:101AA000206881692A6941EA0221816124E0206875
:101AB00001F038FF2068C16941F00801C161206868
:101AC000C16921F00401C1612068C1692A6911431B
:101AD00011E0206801F052FF2068C16941F4006103
:101AE000C1612068C16921F48061C1612068C16958
:101AF0002A6941EA0221C161002084F83C0070BDDE
:101B000010B5040003D094F83D0010B107E00120A7
:101B100010BD002084F83C00204600F01FF8022091
:101B200084F83D00211D206801F052FE012084F858
:101B3000460084F83E0084F83F0084F8400084F8B2
:101B4000410084F8420084F8430084F8440084F89B
:101B5000450084F83D00002010BD000008B5006875
:101B60000649884208D10648816941F400618161D3
:101B7000806900F40060009008BD0000002C014066
:101B8000001002407047000010B50446022249B11F
:101B900004290ED0082913D094F84100012816D04A
:101BA000012010BD94F83E000128F9D184F83E20B0
:101BB0000FE094F83F000128F2D184F83F2008E0BC
:101BC00094F840000128EBD184F8402001E084F82B
:101BD00041200122206801F031FE0F49206888422F
:101BE00003D1426C42F4004242642068884208D02B
:101BF000B0F1804F05D00949884202D00849884297
:101C000004D1816801F00701062903D0016841F081
:101C100001010160002010BD002C014000040040C3
:101C2000000800402DE9FF474D4988427ED14D4CC8
:101C300000252088401C80B220806188491C61807A
:101C4000A188491CA180052817D304F11002911E18
:101C50002580881E00F00BFFB4F90E00FEF7E9FCAA
:101C600002460B46404801F0CDFCFEF76FFD606276
:101C7000FEF7F0FC014601F019FD60880A282FD319
:101C8000384A65800A32911E881E00F0D7FE354A18
:101C90001032911E881E00F0EAFE00F019FE334E4D
:101CA000B068FEF728FD81468A467068FEF723FD7E
:101CB000074688463068FEF71EFD8DE8800702461D
:101CC0000B462BA001F0B0FF3068FEF714FD024672
:101CD00025480B46703001F025FCFEF737FD2062E9
:101CE000A08814283AD3A580042001F0C3FC404208
:101CF0006061022001F0BEFCA06161690844FEF74A
:101D00008FFC0546A062E06AFEF7F5FC1C4F1D4BF8
:101D10003A46FEF7A4FBFEF719FD06462846FEF7F5
:101D2000EAFC3A46184BFEF79AFB00E016E007463D
:101D30000D463046FEF7DFFC3A462B46FEF7E8FA42
:101D4000FEF704FDE062FEF7D6FC024606480B46AD
:101D5000383001F029FCFEF7F9FCE061BDE8FF87AF
:101D60000002002028000020C80000209000002071
:101D7000252E32662C252E32662C252E32660A0040
:101D80009A9999999999E93F9999C93F70477047EC
:101D900070470000F8B5026804461068D1685369BE
:101DA00010F00F0F4FF0000553D003F0010601F4BF
:101DB000907737435FD0C20705D0CA0503D5226CA0
:101DC00042F001022264420705D5DA0703D0226CF3
:101DD00042F002022264820705D5DA0703D0226CA2
:101DE00042F004022264020707D501F020023243C8
:101DF00003D0226C42F008022264226C002A34D004
:101E0000800604D5880602D5204601F01CFE206815
:101E10004069216CC0F38010090700D430B320461C
:101E200001F0F9FD2068416949061BD5416921F09F
:101E300040014161A06BA8B158494163A06BFEF716
:101E40006FFE002811D0A06B416B01B0BDE8F040DF
:101E5000084783060FD58B060DD52046BDE8F84010
:101E600001F0F1BD2046FFF793FFF8BD2046FFF7D4
:101E70008FFF2564F8BD266B2023012E52D1C606A4
:101E800050D5CE064ED51068506800905069400677
:101E90002AD5A16B086840680004000CEAD0A68D22
:101EA0008642E7D9E0858869202818D0D06820F4D8
:101EB0008070D0602068416921F001014161206893
:101EC000416921F04001416184F83E30256320687A
:101ED000C16821F01001C160A06BFEF7FEFDA08D6E
:101EE000E18D401A81B219E0A08DE18D401A81B2D6
:101EF000E08D0028BED00029BCD0D06820F49070BE
:101F0000D0602068426922F00102426184F83E30CC
:101F100025632068C26822F01002C2602046FFF7E5
:101F200036FFF8BD05062BD50D0629D594F83D00E2
:101F30002128F6D1A068B0F5805F01D12069B0B149
:101F4000206A411C2162216800784860E08C401EB4
:101F50000004000CE084E4D12068C16821F0800115
:101F6000C1602068C16841F04001C160F8BD206ACD
:101F70000088C0F308005060206A801C2062E5E7FA
:101F80004006F3D54806F1D5D168204621F040013E
:101F9000D16084F83D3000F0F8F8F8BD073A000849
:101FA00070B5040004D094F83D00002510B106E09F
:101FB000012070BD84F83C50204600F023F8242016
:101FC00084F83D002068C16821F40051C1602046BA
:101FD00001F094FD2068016921F4904101612068BD
:101FE000416921F02A0141612068C16841F4005132
:101FF000C1602564202084F83D0084F83E00002064
:1020000070BD000070B586B0002400940194029465
:10201000039403682B482A4E022103220515B3427C
:1020200021D1836943F480438361836903F480434E
:102030000493836943F0040383618069224E00F0B6
:10204000040004900802CDE900010392694630467D
:10205000FEF7C4FDCDE90054694630460294FEF710
:10206000BDFD06B070BD194EB342FAD1C36943F449
:102070008023C361C36903F480230493836943F01D
:10208000080383618069CDE9005100F00800CDE9C3
:1020900003200F4D69462846FEF7A0FDE814CDE960
:1020A0000004694628460294FEF798FD0022114676
:1020B0002720FEF7F5FE2720FEF7E4FED1E700001B
:1020C0000038014000100240000801400048004074
:1020D000000C0140704700002DE9F843044690F8D9
:1020E0003D001F4616460D4620284CD1C5B1BEB155
:1020F00094F83C00012846D0012084F83C004FF0C1
:102100000008C4F84080212084F83D00FEF75CFE02
:10211000A6848146E684A068B0F5805F03D004E021
:102120000120BDE8F883206928B12E465FF0000544
:1021300084F83C800EE00026FAE78021204601F07A
:1021400039FDA0B9AEB116F8010B21684860E08CEA
:10215000401EE084E08C4B464FF0000200970028C0
:10216000EBD14FF04001204601F024FD30B10320B7
:10217000D7E735F8020BC0F30800E6E7202084F823
:102180003D000020CDE70220CBE77047FEE70000CE
:1021900070B50D4C0025C4F890510C48016821F42D
:1021A00070410160016841F440510160C4F88C51F4
:1021B000022004F5C67402F063FD01206060022075
:1021C00002F05EFD656070BD00802142000C0140A0
:1021D00003480121C0F89011C0F88C11704700002D
:1021E0000080214270B50D4C0025C4F890510C4878
:1021F000016821F470410160016841F440510160BF
:102200000126C4F88C61022004F5C67402F038FD82
:102210006660022002F034FD656070BD00802142DE
:10222000000C01402DE9F047814617480024016861
:1022300021F470410160016841F400410160134ED6
:10224000254627464FF00108C6F89071022002F09B
:1022500017FDC6F890816006040ED6F80C0108B18F
:10226000641CE4B2022002F00BFD6D1CEDB2082DDF
:10227000EAD3B9F1000F04D0FFF78AFF2046BDE88A
:10228000F087FFF7AFFFF9E7000C01400080214223
:102290002DE9F04106461448016821F470410160BF
:1022A000016841F440510160104C0027C4F890715E
:1022B0003D464FF00108F009C4F88C017006060E87
:1022C000022002F0DDFCC4F89081022002F0D8FC6C
:1022D000C4F89071022002F0D3FC6D1CEDB2082D01
:1022E000E9D3BDE8F0810000000C014000802142EC
:1022F00070B50D48016821F470410160016841F436
:1023000040510160094C0120C4F88C01C4F89001CF
:10231000022004F5C67402F0B3FC002525600220FB
:1023200002F0AEFC656070BD000C014000802142EF
:102330000E4810B5016821F470410160016841F454
:10234000405101600A4C0020C4F89001C4F88C018F
:10235000022004F5C67402F093FC01206060206046
:10236000BDE81040022002F08BBC0000000C0140D0
:102370000080214270B513480024016821F47041A7
:102380000160016841F4004101600F4D0126C5F86C
:102390008C61022002F074FCC5F89061022002F00A
:1023A0006FFC07E0641CE4B2FA2C03D9FFF7C0FF0E
:1023B000012070BDD5F80C010028F3D1C5F89001BB
:1023C00070BD0000000C0140008021422DE9FF4F4C
:1023D000E64C8FB0DDF870B020680390D4E901605E
:1023E0000190E068039900900846FDF715FF0C90F6
:1023F00031460398FDF710FF0B9001990398FDF704
:102400000BFF814631460846FDF706FF099030462E
:102410000099FDF701FF019980460846FDF7FCFE93
:102420000790DDE90010FDF7F7FE00990546084624
:10243000FDF7F2FE1D9905900846FDF7EDFE0746F3
:1024400059460846FDF7E8FE129982460846FDF710
:10245000E3FE5146FDF788FE3946FDF785FE02F0A2
:1024600037FC074601461298FDF7D6FE1290394612
:102470005846FDF7D1FE1C9039461D98FDF7CCFE5D
:10248000824649464046FDF7C1FE0121FDF734FF73
:10249000074629460B98FDF767FE0121FDF72CFF43
:1024A000814609990C98FDF7B1FE0799FDF7AEFE3C
:1024B0000599FDF759FE054649465046FDF7ACFE25
:1024C000804629461C98FDF7A7FE4146FDF79EFE73
:1024D000834629461298FDF79FFE05463946504629
:1024E000FDF79AFE2946FDF791FE804639461C9875
:1024F000FDF792FE054649461298FDF78DFE2946E6
:10250000FDF784FEDFF86892824649465846FDF79B
:1025100083FEA4F11405A968FDF726FE0746A8600E
:1025200049464046FDF778FEE968FDF71DFEE86084
:102530000B9049465046FDF76FFE2969FDF714FEE2
:1025400028610890686839460590FDF765FE0746E2
:10255000286859468346FDF75FFE0F99FDF704FE94
:102560003946FDF701FE81460B990598FDF754FEAB
:10257000054641465846FDF74FFE1099FDF7F4FD1C
:102580002946FDF7F1FD804608990598FDF744FEC0
:10259000054651465846FDF73FFE1199FDF7E4FD0B
:1025A0002946FDF7E1FD834601217248FDF7A4FEAF
:1025B00082465946FDF730FE0146FDF72DFE0746DF
:1025C00050464146FDF728FE0146FDF725FE05462B
:1025D00050464946FDF720FE0146FDF71DFE2946FF
:1025E000FDF7C2FD3946FDF7BFFD07465946009885
:1025F000FDF712FE824641460198FDF70DFE0546A5
:1026000086F000404946FDF707FE2946FDF7FEFD2E
:102610005146FDF7FBFD5749FDF7FEFD05466FF0FE
:1026200002013846FDF768FE4FF07E51FDF7F1FDDF
:1026300007900399FDF7F0FD2946FDF795FD074644
:1026400041460098FDF7E8FD054659460198FDF71B
:10265000E3FD824639464846FDF7DEFD5146FDF76B
:1026600083FD2946FDF7D2FD4249FDF7D5FD05461C
:1026700031460798FDF7D0FD2946FDF775FD8246E6
:1026800048460099FDF7C8FD064659465046FDF7F5
:10269000C3FD054641463846FDF7BEFD2946FDF718
:1026A000B5FD3146FDF760FD3249FDF7B5FD054644
:1026B00001990798FDF7B0FD2946FDF755FD06463F
:1026C00001464846FDF7A8FD814641465046FDF7C4
:1026D000A3FD054659463846FDF79EFD2946FDF700
:1026E00043FD4946FDF792FD2249FDF795FD05465C
:1026F00000990798FDF790FD2946FDF735FD054641
:102700000146FDF789FD834631460846FDF784FD05
:10271000814651460846FDF77FFD8046394608460A
:10272000FDF77AFD4146FDF71FFD4946FDF71CFD0B
:102730005946FDF719FD02F0CBFA804601463846AE
:10274000FDF76AFD206041465046FDF765FD60607B
:1027500041463046FDF760FDA06041462846FDF742
:102760005BFDE06013B0BDE8F08F000014000020B6
:102770000AD7233C0AD7A33B2DE9F047484D04462E
:10278000DFF82091D5E900014FF0404842464B4622
:10279000FDF765FE064644480F46B0F90000FDF718
:1027A0003FFFDFF808A15146FDF736FDFDF7A3FF17
:1027B00032463B46FDF7ACFDFDF7C8FF2060D5E98A
:1027C000020142464B46FDF74AFE064638480F4690
:1027D000B0F90000FDF724FF5146FDF71DFDFDF7A0
:1027E0008AFF32463B46FDF793FDFDF7AFFF606081
:1027F000D5E9040142464B46FDF731FE07462D4818
:102800000E46B0F90000FDF70BFF5146FDF704FD41
:10281000FDF771FF3A463346FDF77AFDFDF796FF67
:102820000026A06054F82600FDF765FF05EBC60200
:10283000761CC2E90001032EF4DB1F48B0F900004A
:10284000FDF7EEFE1D4D2946FDF7E6FC1C4E314618
:10285000FDF714FD1B4F3946FDF710FDE0601A48E7
:10286000B0F90000FDF7DCFE2946FDF7D5FC314646
:10287000FDF704FD3946FDF701FD20611348B0F96D
:102880000000FDF7CDFE2946FDF7C6FC3146FDF7F9
:10289000F5FC3946FDF7F2FC6061BDE8F087000009
:1028A00078000020CCCCE43F2E0000203333B33E30
:1028B000300000203200002034000020560E494035
:1028C00000003443333383413600002038000020B9
:1028D0002DE9FC5F5548FFF74FFF5448D0E901123E
:1028E000CDE9001203680C3007C8FFF76FFD5048B0
:1028F000D0E90021D0E90286894601211046FDF782
:10290000FBFC41460090FDF787FC04464FF0404B2E
:1029100059464846FDF780FC07463146FDF77CFCEA
:102920002146FDF721FCFDF7E6FE01F089FE0022BD
:10293000404BFDF794FD5A463F4BFDF702FEFDF775
:1029400005FF3A4D01210C3D28604046FDF7D4FCBF
:1029500041460190FDF760FC044638464946FDF7C4
:102960005BFC2146FDF752FC4FF07E51FDF7FCFB6E
:10297000FDF7C1FE07460C4649460098FDF74CFCA2
:10298000824631460198FDF747FC5146FDF7ECFBC6
:10299000FDF7B1FE3A46234602F09AF80022254B95
:1029A000FDF75DFD5A46244BFDF7CBFDFDF7CEFE4E
:1029B000686001213046FDF79FFC3146FDF72CFC95
:1029C000044659464046FDF727FC4146FDF724FCE6
:1029D0002146FDF71BFC4FF07E51FDF7C5FBFDF7CF
:1029E0008AFE07460C4631460098FDF715FC064660
:1029F00001214846FDF780FC4146FDF70DFC3146BC
:102A0000FDF7B2FBFDF777FE3A46234602F060F889
:102A10000022084BFDF723FD5A46074BFDF791FDB9
:102A2000FDF794FEA860BDE8FC9F00009C0000201C
:102A30001400002000806640CA2109407CB514467D
:102A40000D4606466B4606223B21682000F08EF8B4
:102A500000280BD1BDF8001049BA3180BDF8021032
:102A600049BA2980BDF8041049BA21807CBD7CB5E3
:102A700014460D4606466B4606224321682000F0A8
:102A800075F800280BD1BDF8001049BA3180BDF8A7
:102A9000021049BA2980BDF8041049BA21807CBDD2
:102AA00010B5FFF795FB80216B2000F0CEF8642075
:102AB00002F0D8F800216B2000F0C7F8032000F0E6
:102AC00090F8022000F088F8322000F0A7F80021EA
:102AD000382000F0BAF800216A2000F0B6F8002192
:102AE000232000F0B2F88021372000F0AEF87520E6
:102AF00000F01EF80446014609A001F095F8682C84
:102B000001D0012010BD01216B2000F09EF80021B2
:102B10006C2000F09AF8322000F080F8002010BD00
:102B20006D70755F616464723A2025640A0000006C
:102B300010B50446FFF7DCFBD020FFF7A9FBFFF739
:102B400019FC2046FFF7A4FBFFF714FCFFF7D0FBAE
:102B5000D120FFF79DFBFFF70DFC0020FFF762FB84
:102B60000446FFF7E5FB204610BD00002DE9F041CB
:102B70001D4614460F460646FFF7BAFB7006000EC8
:102B8000FFF786FBFFF7F6FB20B1FFF7D1FB012033
:102B9000BDE8F0813846FFF77BFBFFF7EBFBFFF763
:102BA000A7FB012000EB4600C0B2FFF771FBFFF767
:102BB000E1FB09E0012C0DD05FF00100FFF732FBD3
:102BC000641E05F8010BE4B2002CF3D1FFF7B0FB53
:102BD0000020DDE70020F1E7C006010E1C2000F018
:102BE00034B8C006010E1B2000F02FB8BC2801D35A
:102BF000012110E0622801D302210CE02A2801D330
:102C0000032108E0142801D3042104E00A2801D399
:102C1000052100E006211A2000F017B810B504467F
:102C20004FF47A70844201D9044602E0042C00D2A9
:102C30000424B0FBF4F0401EC1B2192000F005F8E6
:102C40006008BDE81040FFF7D1BF70B50C460546DF
:102C5000FFF74EFBD020FFF71BFBFFF78BFB50B9B4
:102C60002846FFF715FBFFF785FB2046FFF710FB13
:102C7000FFF780FB18B1FFF75BFB012070BDFFF78A
:102C800057FB002070BD00002DE9F04186B0002404
:102C90002A480094019402940394816941F0200130
:102CA0008161816901F020010491816941F0040191
:102CB0008161816901F004010491816941F0080199
:102CC000816180691E4F00F0080041F238050490D0
:102CD000002229463846FEF771F8DFF868800022A6
:102CE0004FF218014046FEF769F80420CDE90004D0
:102CF000694638460294FDF771FF009502260125CA
:102D00000396CDE9015469463846FDF767FF4FF455
:102D10007040CDE90005CDE9024669464046FDF721
:102D20005DFF1820CDE900050320CDE9024069468A
:102D30004046FDF753FF06B0BDE8F08100100240A9
:102D400000080140000C014010B592B000240F941F
:102D50001C2168461094FDF7FCF9202107A8FDF717
:102D6000F8F924482249C0E9001441F61F41C0E99E
:102D70000241046144618461FEF7C2FE08B1FDF7BF
:102D8000AAFE0F940FA91B481094FEF783FB08B10D
:102D9000FDF7A1FE6020CDE90004029403940494A1
:102DA00005940022694613480694FEF746FE08B1D2
:102DB000FDF791FE0C2269460E48FEF73EFE08B173
:102DC000FDF789FE0794089409944FF400500A9483
:102DD000CDE90B4007A907480E94FEF731FB08B177
:102DE000FDF779FE0348FEF701FE12B010BD0000AA
:102DF000002C01407001002010B58CB024216846E1
:102E0000FDF7A7F90024164809944FF080410A9471
:102E100001600121C0E901144FF6FF72C0E90324EB
:102E200084610320CDE9000402910A20CDE903402A
:102E3000CDE90541CDE9074069460948FEF741FC67
:102E400008B1FDF748FE099409A905480A94FEF760
:102E500021FB002801D0FDF73EFE0CB010BD0000A4
:102E6000B801002010B586B00024174800940194E2
:102E70000294039404941349059401604721C0E926
:102E8000011440F2E731C0E903148461FEF736FB18
:102E900008B1FDF720FE4FF48050009069460A48C3
:102EA000FEF7A4FB08B1FDF716FE049404A906483A
:102EB0000594FEF7EFFA002801D0FDF70CFE06B0EE
:102EC00010BD0000000400400002002010B58CB0CE
:102ED00024216846FDF73DF9002416480994144959
:102EE0000A9401600121C0E901144FF6FF72C0E9A4
:102EF000032484610320CDE9000402910A20CDE976
:102F00000340CDE90541CDE9074069460948FEF790
:102F1000D8FB08B1FDF7DFFD099409A905480A941B
:102F2000FEF7B8FA002801D0FDF7D5FD0CB010BDB2
:102F300000080040480200200C4810B50A49016012
:102F40004FF4E1314160002181600C22C160C0E991
:102F500004128161C161FFF723F8002803D0BDE8A6
:102F60001040FDF7B8BD10BD0038014090020020B0
:102F70000C4810B50A4901604FF4E131416000216D
:102F800081600C22C160C0E904128161C161FFF758
:102F900007F8002803D0BDE81040FDF79CBD10BD28
:102FA00000480040D4020020FEE7FEE770B5002490
:102FB000002104F1B00000F03CFA0021084600F0C6
:102FC00038FA0021102000F034FA002501210020F9
:102FD00000F02FFA6D1CEDB2802DF7D3641CE4B223
:102FE000082CE5D370BD00002DE9FF5F002084B000
:102FF0001F46144601268146009001900246034672
:103000000290DDF848B0B04620463946FDF786FB11
:10301000204602D287F0004100E03946FDF733FB3D
:103020000546FDF706FB22463B46FDF715FA002252
:10303000444BFDF714FAFDF745FB01460A2005E075
:1030400008EB8802761C4FEA4208F6B295FBF0F3D3
:1030500093FBF8F2002AF3D142F2107295FBF2F2E0
:1030600092FBF0F300FB13228DF800204FF47A72EC
:1030700095FBF2F393FBF0FC00FB1C338DF8013061
:10308000642395FBF3FC9CFBF0F800FB18CC8DF857
:1030900002C095FBF0FC9CFBF0F800FB18CC8DF80F
:1030A00003C095FBF0FCB1FBF2F200FB1C558DF860
:1030B0000450B2FBF0F500FB15224FF02E0A8DF8FC
:1030C00005A08DF80620B1FBF3F2B2FBF0F300FB94
:1030D00013228DF80720B1FBF0F2B2FBF0F300FBF6
:1030E00013228DF80820B1FBF0F200FB12108DF8CE
:1030F00009000DEB0B086D4688F806900020295C4E
:1031000030312954401C0A28F9DB0022134620469E
:103110003946FDF703FB05D2761CF6B2C6F1050170
:103120002D2068548DF805A0C6F1050088F806909A
:103130004219DDE904100C2300F062F908B0BDE883
:10314000F09F00000088C34010B50B4C01221021F5
:103150002046FDF733FE012220212046FDF72EFEFA
:10316000002220212046FDF729FE20460022BDE84E
:1031700010401021FDF722BE0008014010B5094C97
:10318000012210212046FDF719FE002220212046B1
:10319000FDF714FE20460122BDE810402021FDF776
:1031A0000DBE00000008014010B5064C01221021A0
:1031B0002046FDF703FE20460022BDE81040102106
:1031C000FDF7FCBD0008014010B54FF4487001F058
:1031D00049FD0021AE2000F02CF90021084600F046
:1031E00028F90021102000F024F90021402000F0EF
:1031F00020F90021B02000F01CF90021812000F00E
:1032000018F90021FF2000F014F90021A12000F09E
:1032100010F90021A62000F00CF90021A82000F0F0
:1032200008F900213F2000F004F90021C82000F037
:1032300000F90021D32000F0FCF80021084600F03E
:10324000F8F80021D52000F0F4F80021802000F0EB
:10325000F0F80021D82000F0ECF80021052000F063
:10326000E8F80021D92000F0E4F80021F12000F076
:10327000E0F80021DA2000F0DCF80021122000F054
:10328000D8F80021DB2000F0D4F80021302000F035
:10329000D0F800218D2000F0CCF80021142000F09F
:1032A000C8F80021BDE81040AF2000F0C2B82DE9F9
:1032B000F041884664230A21451C841C002A0EDA4A
:1032C000524292FBF3F603FB162393FBF1F3DEB2BB
:1032D00092FBF1F301FB1321CFB20D220CE092FB24
:1032E000F3F603FB162393FBF1F3DEB292FBF1F34B
:1032F00001FB1321CFB20B22414600F0F7F8E8B2F0
:103300003246414600F008F8E0B23A464146BDE890
:10331000F04100F001B8000070B500EB400040063D
:1033200015460024000E00F011F8074905EB450092
:1033300001EB40052819012190F8600000F079F8B0
:10334000641C062CF6DB70BD544F000810B50A460D
:103350000446002102F1B00000F06BF8102040EAB2
:103360001410002100F065F804F00F00BDE81040D3
:10337000002100F05EB800002DE9F041203A002461
:103380000D468046D6B27F2803D900208D1C80468A
:10339000EDB2102B294610D0FFF7D8FF164906EBE7
:1033A000460001EB40050121285D00F042F8641C55
:1033B000E4B2062CF7D3BDE8F081FFF7C7FF0F4F4B
:1033C00004EB06100121385C00F033F8641CE4B211
:1033D000082CF5D36D1CE9B24046FFF7B7FF002477
:1033E00004EB061038440121007A00F022F8641C36
:1033F000E4B2082CF4D3DEE7544F00087C510008F7
:103400002DE9F0411F4615460E4604460CE03B46AA
:1034100031462046FFF7B0FF0834E4B2782C02D9D9
:103420000024B61CF6B26D1C2A78002AEFD1BDE844
:10343000F081C0B209B100F042B800F029B8000034
:1034400070B5124E0446002210213046FDF7B6FC3E
:103450005FF0000504F08000802815D000222021B4
:103460003046FDF7ABFC6006040E01221021304609
:10347000FDF7A4FC002210213046FDF79FFC6D1CD7
:10348000EDB2082DE6D370BD0122E8E70008014047
:1034900010B50446FFF758FE7820FFF7D1FFFFF77D
:1034A00083FE0020FFF7CCFFFFF77EFE2046FFF7EC
:1034B000C7FFFFF779FEBDE81040FFF75FBE10B50C
:1034C0000446FFF741FE7820FFF7BAFFFFF76CFED6
:1034D0004020FFF7B5FFFFF767FE2046FFF7B0FF7C
:1034E000FFF762FEBDE81040FFF748BE70B500EB85
:1034F0004000400615460024000EFFF727FF06494E
:1035000005EB450001EB40050121285DFFF791FF28
:10351000641C062CF8DB70BD544F00083821FCF702
:1035200018BE00002DE9F04704469246D4E9000198
:103530009946FCF78EFF07460B468846D4E90C01F6
:103540003A46FCF7E5FEC4E90C01D4E90856D4E993
:103550000A2328463146FCF77CFFC4E90A56C4E931
:1035600008780246D4E906060B463146FCF777FF99
:1035700005460B480E4601680A480068FCF7F4FD52
:10358000FDF7B9F852464B46FCF763FFD4E9022336
:10359000FCF765FF2A463346BDE8F047FCF7B8BEA6
:1035A00058000020440000202DE9F0410446D4E9F1
:1035B0000001FCF74EFF07460246D4E90C0C0D460D
:1035C0000B466146FCF7A4FEC4E90C0102460B461B
:1035D000D4E90801C4E90A01C4E90875D4E9040181
:1035E000FCF73DFF0646D4E9020488463A462B46DE
:1035F0002146FCF734FF32464346BDE8F041FCF774
:1036000087BE00002DE9F04704461646D4E90001C4
:103610009946FCF71EFF07460246D4E90C0C0D46FE
:103620000B466146FCF774FEC4E90C0102460B46EA
:10363000D4E90801C4E90A01C4E90875D4E9040120
:10364000FCF70DFF054609480F460068FDF753F8E3
:1036500032464B46FCF7FDFED4E90223FCF7FFFEA1
:103660002A463B46BDE8F047FCF752BE4800002022
:10367000704700000021022805D0032809D0042843
:1036800009D0002070474FF08042506A516200B26A
:103690007047034A00E0034A1068116000B27047A7
:1036A0002404004024080040704700002DE9F04742
:1036B000294C4642C1F100054FF480594FF4005A9D
:1036C00006D5002249462046FDF778FB012205E099
:1036D000012249462046FDF771FB00225146204653
:1036E000FDF76CFB4FF400474FF48048002D06DADD
:1036F000002239462046FDF761FB012205E0012248
:1037000039462046FDF75AFB002241462046FDF788
:1037100055FB4EB9012249462046FDF74FFB0122D9
:1037200051462046FDF74AFB4DB901223946204655
:10373000FDF744FB012241462046FDF73FFB3046A2
:1037400001F074FB05490A685063284601F06EFBDE
:1037500009680864BDE8F087000C01407001002092
:10376000FDF738BB30B58FB028216846FCF7F1FC77
:1037700014210AA8FCF7EDFC01210804CDE9001092
:103780000024029402250491CDE907504FF4E01083
:1037900009906846FDF7A2FC08B172B6FEE70F205B
:1037A000CDE90A054FF48060CDE90C4002210AA85A
:1037B0000E94FDF7A7FB002801D072B6FEE70FB00C
:1037C00030BD70470148FEF75DB8000000020020E0
:1037D000F0B50268164B174C174D4FF080479842D2
:1037E00005D0B84203D0A04201D0A84203D122F0B4
:1037F00070064A683243984205D0B84203D0A042CE
:1038000001D0A84203D122F44074CA6822434C6913
:1038100022F08002224302608A68C2620A688262E1
:10382000984201D10969016301214161F0BD0000A5
:10383000002C0140000400400008004010B501F0D9
:103840001F030121046A99408C430462016A9A4073
:103850001143016210BD10B5846842EA032224F4CA
:103860007F440A432243826010BD826822F07002C6
:103870000A4342F0070181607047000030B5026AD8
:1038800022F001020262026A4368846924F073052F
:103890000C682C4322F002058A682A430A4DA8428C
:1038A0000BD122F00805CA6823F440732A434D69FE
:1038B00022F004021D438B692B43436084614968F5
:1038C0004163026230BD0000002C014030B5026A45
:1038D00022F010020262026A436884690D6824F4CF
:1038E000E64444EA05248D6822F0200242EA0512EB
:1038F0000B4DA8420ED1CD6822F0800242EA05129B
:103900004D6923F4406343EA85038D6922F0400248
:1039100043EA85034360846149688163026230BD84
:10392000002C014030B5026A22F480720262036A00
:103930004268C46923F4007324F073050C682C43B7
:103940008D6843EA05230C4DA8420ED1CD6823F4BF
:10395000006343EA05234D6922F4405242EA05120E
:103960008D6923F4806342EA05124260C4614968AC
:10397000C163036230BD0000002C014030B5026A13
:1039800022F480520262046A4268C3690D6823F41B
:10399000E64343EA05238D6824F4005444EA0534E1
:1039A000064DA84204D14D6922F4804242EA8512B4
:1039B0004260C36149680164046230BD002C01406B
:1039C00010B5036A046A24F001040462846924F0D7
:1039D000F00444EA021423F00A020A4384610262FA
:1039E00010BD10B5036A23F0100303628369046AF3
:1039F00023F4704343EA023224F0A00343EA0111A6
:103A00008261016210BD10B5406A0021C185C18488
:103A1000FEF7BEF910BD0168CA6822F49072CA6050
:103A200001684A6922F001024A61016B012904D14F
:103A30000168CA6822F01002CA60202180F83E1096
:103A400000210163704708B590F83E10222901D08B
:103A5000022008BD82684FF480539A4201D1016967
:103A600021B1816A9A421BD04AB10AE00268816A98
:103A70005268C2F308020A80816A891C08E0026960
:103A800072B10268526802F07F020A70816A491CB2
:103A90008162C18D491E0904090CC18503D019E05A
:103AA00002685268F1E70168CA6822F02002CA6021
:103AB0000168CA6822F48072CA6001684A6922F00B
:103AC00001024A61202180F83E10016B012903D0D8
:103AD000FEF700FB002008BD002101630168CA68F1
:103AE00022F01002CA6001680A68D20602D50A688C
:103AF00049680091818DFEF74AF9EBE770B50446FD
:103B000000680169E26821F44051114301612169B3
:103B1000A0680843616908432168CA6841F20C63E0
:103B20009A430243CA6020684169A26921F4407146
:103B3000114341611E492068884202D1FDF788FA8D
:103B400001E0FDF775FA00EBC00101EB00126068BF
:103B500064218000B2FBF0F3B3FBF1F36FF01806C1
:103B60007343B2FBF0F5B2FBF0F605EB83053223AD
:103B700003EB0515B5FBF1F5B6FBF1F605F0F00525
:103B800005EB0615B2FBF0F6B2FBF0F0B0FBF1F07E
:103B90006FF01802504306EB800003EB0010B0FBFF
:103BA000F1F0216800F00F002844886070BD00002B
:103BB000003801402DE9F041984617460E4604466C
:103BC000069D1DE0681C1BD02DB1FDF7FDF8A0EB94
:103BD0000800A84214D92068C16821F4D071C160DE
:103BE0002068416921F001014161202084F83D00F5
:103BF00084F83E00002084F83C000320BDE8F081FA
:103C00002068006836EA000004D00020B842D9D00D
:103C10000020F3E70120F9E70148FEF7BBB80000F8
:103C2000D4020020FEE700000FB4054B10B503A935
:103C3000044A029800F06CF910BC5DF814FB000017
:103C4000B54C000870000020490050EAC12018BFA0
:103C500004204A0D18BF40F0010040F2FF72B2EBA1
:103C6000515F08BF40F00200012808BF05207047DF
:103C70000907090E002804DB00F1E02080F8001499
:103C8000704700F00F0000F1E02080F8141D70472D
:103C90002DE9F0414F1E00EBC7010446D1E90001B8
:103CA00015461E4637F006020DD02A463346FCF76D
:103CB000D6FB7F1E04EBC703D3E90023FCF728FBE8
:103CC00037F00602F1D1022F25D0042F13D0062F92
:103CD00018BFBDE8F0812A463346FCF7C0FBD4E9A3
:103CE0000A23FCF715FB2A463346FCF7B8FBD4E958
:103CF0000823FCF70DFB2A463346FCF7B0FBD4E95A
:103D00000623FCF705FB2A463346FCF7A8FBD4E95B
:103D10000423FCF7FDFA2A463346FCF7A0FBD4E95E
:103D20000223FCF7F5FA2A463346FCF798FBD4E960
:103D30000023BDE8F041FCF7EBBA0122FCF71EBE00
:103D4000FCF7E6BA0022134610461146FCF7F9BB11
:103D5000024A00201107FCF711BE000001FDFFFF21
:103D600002E008C8121F08C1002AFAD17047704744
:103D7000002001E001C1121F002AFBD170470000A2
:103D80000149086070470000740000202DE9FF5FC2
:103D900082B00021DDE90430020DDDF840B00343BC
:103DA00018D044F61050A2F2FF3242431514119875
:103DB00001281FD0A5EB0B00401C5FEA000A4FF062
:103DC00000064E4FDFF83891B046504615D5CAF17F
:103DD000000413E0119801244AA3012801D16FEADD
:103DE0000B010298119AC0E90031C0E9024206B005
:103DF000BDE8F09FCBF10000DFE704460021404A18
:103E0000491842EB0450CDE9001012E0E00707D05A
:103E100032463B4640464946FCF721FB80468946F0
:103E200032463B4610461946FCF719FB06460F463C
:103E30006410002CEAD1DDE90401DDE90023BAF1C8
:103E4000000F06DAFCF70BFB42464B46FCF707FB7C
:103E500005E0FCF776FB42464B46FCF772FB044656
:103E60000E460022284BFCF7B9FD03D84FF0FF3077
:103E7000014607E00022254B20463146FCF748FA70
:103E8000FCF793FD102409E0002C0ADB0A22002332
:103E9000FCF78EFC039B30321A55641E50EA010277
:103EA000F2D1641C039AC4F111031444119A012A3B
:103EB00003D0012208430DD10AE0084304D00020BA
:103EC0004FF0110B119072E7A3EB0B056D1E0DE087
:103ED0005B4504DD4FF0000205F1010504E003DA63
:103EE0004FF00002A5F10105002AECD002981199CB
:103EF000C0E90231C0E9004579E700000000144044
:103F00000000F03F300000000000F0430000E03F00
:103F10002DE9FF4F95B09B468946064600250FE2E6
:103F2000252877D100242746F84A0121059400E08E
:103F3000044316F8013F203B01FA03F01042F7D189
:103F400030782A2811D06FF02F033078A0F130029A
:103F5000092A16D8059A44F0020402EB820203EB08
:103F600042021044761C0590EFE759F8042B0592A5
:103F7000002A03DA504244F40054059044F002044D
:103F8000761C30782E2816D116F8010F44F0040460
:103F90002A280DD06FF02F023078A0F13003092BC2
:103FA00009D807EB870302EB4303C718761CF3E736
:103FB00059F8047B761C30786C280FD006DC4C282E
:103FC00017D068280DD06A2814D104E0742810D0C6
:103FD0007A280FD10DE044F400140AE044F4801470
:103FE00001E044F440147278824202D104F5801456
:103FF000761C761C307866280BD013DC582877D0D6
:1040000009DC002875D04528F6D04628F4D047288A
:104010001AD19DE118E0632835D0642879D065284D
:1040200012D195E1702873D008DC6728F1D0692897
:104030006FD06E280DD06F2806D1B5E073282CD034
:10404000752875D0782874D05A46179990476D1CFA
:1040500075E1C4F30250022809D003280DD0D9F825
:10406000001004280DD00D6009F1040967E1D9F8AA
:104070000010EA17C1E90052F6E7D9F800100D80E8
:10408000F2E70D70F0E719F8041B8DF8001000201E
:104090008DF80100EA46012003E059F804AB4FF027
:1040A000FF3061074FF0000102D40DE008F101017B
:1040B0008846B9420FDA8045F8DB1AF80810002963
:1040C000F4D108E008F1010188468142FADB1AF8D0
:1040D00008100029F6D105985B46A0EB0807214699
:1040E0003846179A00F094FA284400EB080507E0D8
:1040F0004DE029E10DE01AF8010B5A461799904757
:10410000B8F10108F7D25B4621463846179A13E109
:1041100042E00A220092C4F302524FF0000A022A3F
:1041200008D059F804CB032A4FEAEC710AD00DE00D
:1041300029E02AE009F1070121F00702F2E802C1B3
:10414000914609E00FFA8CFC4FEAEC71042A03D186
:104150004FFA8CFC4FEAEC71002907DA0A4600217D
:10416000DCF1000C61EB02012D2202E0220504D5F6
:104170002B228DF80420012203E0E20701D0202247
:10418000F7E7904659E00A2102E010220DE01021E5
:104190004FF0000A00910BE010224FF0000A44F0AB
:1041A00004040827009203E008224FF0000A00925E
:1041B000C4F30252022A05D059F804CB0021032A85
:1041C00008D009E009F1070121F00702F2E802C175
:1041D000914605E01FFA8CFC042A01D10CF0FF0C7B
:1041E0004FF00008220728D5702806D0009B83F0E6
:1041F000100353EA0A0305D00EE040228DF8042094
:10420000012208E05CEA010206D030228DF8042089
:104210008DF8050002229046009B83F0080353EAC4
:104220000A030AD15CEA010201D1620705D53022F6
:104230008DF804204FF001087F1E582804D034A0C8
:1042400003900EA802900DE036A0F9E753466046B1
:10425000009AFCF7ADFA84460398825C0298401EEF
:10426000029002705CEA0100F0D1029806A9081AD7
:1042700000F1200A600702D524F4803400E0012711
:10428000574502DDA7EB0A0000E0002000EB0A0121
:10429000009005984144401A0590E00306D45B461F
:1042A0002146179A059800F0B3F90544002706E067
:1042B00001A85A46C05D179990476D1C7F1C474561
:1042C000F6DBE0030CD55B462146179A059800F013
:1042D0009FF9054404E030205A46179990476D1C19
:1042E0000099481E00900029F5DC08E00298029928
:1042F0005A460078491C0291179990476D1CBAF1F3
:104300000001AAF1010AF1DC65E1000009280100C1
:10431000303132333435363738396162636465663B
:1043200000000000303132333435363738394142FD
:10433000434445460000000000F058F90544761C4F
:10434000307800287FF4ECAD19B02846BDE8F08F36
:10435000620700D4062709F1070222F0070CFCE8E7
:104360000223E14603F000485FEA080C02D00FF296
:10437000702C0DE05FEA045C02D50FF2682C07E0B8
:104380005FEAC47C02D00FF2602C01E0AFF2700C47
:104390004FF0FF3823F00043CDF850C065280CD013
:1043A00006DC452809D046281DD047283DD13DE0F0
:1043B000662818D067287ED138E00021112F01DB54
:1043C000112000E0781CCDE9000106A90EA8FFF736
:1043D000DDFCDDE90F010E9A03910021009207F147
:1043E000010A04914DE04FF000400097CDE9011023
:1043F00006A90EA8FFF7CAFCDDE90F0203920E9B87
:1044000011990022DDF80CA00093049211B9791CD7
:1044100000EB010AB7EB0A0004D4C0F1FF3007F14A
:10442000010A0490AAEB0700019044E0012F00DA92
:1044300001270021112F01DD112000E03846CDE9D0
:10444000000106A90EA8FFF7A1FCDDE90F010E9AF5
:104450000391002104910092BA4621070CD40399DC
:10446000514500DA8A46BAF1010F05DD009AAAF13A
:104470000101515C302908D0B84202DA10F1040F72
:1044800006DA0121CDE9011015E0AAF10101E9E701
:10449000002805DC049901440491AAEB000102E024
:1044A000411C514500DD8A460499401A401C019088
:1044B0004FF000400290200704D40198504501DBE2
:1044C000CDF8048000208DF84F0002980DF14F07C1
:1044D000B0F1004F25D02B200E9002984FF002082B
:1044E00000280CDA404202902D200E9007E00A21AD
:1044F0000298FCF747F93031029007F8011DB8F136
:104500000001A8F10108F2DC02980028EFD1791E21
:104510000E980870307800F0200040F0450007F851
:10452000020D12A8C01B00F107081498007800B112
:10453000012000EB0A01019801EBE071059841446C
:10454000401A401E0590E00306D45B462146179AA8
:10455000059800F05DF805441498007818B15A46A3
:10456000179990476D1CE00324D55B462146179AA6
:10457000059800F04DF805441CE00498002807DB7E
:10458000DDE90301884203DD0098405C179901E0F2
:10459000179930205A469047049805F10105401CB0
:1045A00004900198401E019004D12E205A4617997C
:1045B00090476D1CBAF10001AAF1010ADDDC05E0AB
:1045C00017F8010B5A46179990476D1CB8F1000176
:1045D000A8F10108F4DC5B462146179A0598ABE682
:1045E0002D0000002B000000200000002DE9F0410C
:1045F000044600251E461746880404D405E03946C3
:104600002020B0476D1C641EF9D52846BDE8F08116
:104610002DE9F041044600251E469046C80301D509
:10462000302700E02027880404D505E041463846BD
:10463000B0476D1C641EF9D52846BDE8F081000026
:104640002DE9F04D8D4F21F0004A86B005460C460D
:10465000BA452ADBAAEB070028430AD088488245DE
:1046600001DC1AD1CDB106B02846BDE8F04DFFF708
:1046700064BB844A844B2846FBF7F1FE07460E468E
:10468000824A834B28462146FBF7E9FE06B03A46AC
:104690003346BDE8F04DFBF73BBE0120FFF770FB52
:1046A00006B0BDE8F04DFFF74DBB7A48824542DACF
:1046B000BAF1795F0BDA2846FFF7C6FA042808BF7B
:1046C000FFF746FB284606B02146BDE8F08D2A4696
:1046D0000B461046FBF7C3FE834602466E480E4665
:1046E0000B4606217844FFF7D3FA5A463346FBF7C8
:1046F000B6FE804669488A465A46334604217844C5
:10470000FFF7C6FA5A463346FBF7A9FE00223B469E
:10471000FBF7FEFD02460B4640465146FBF711FFF4
:104720002A462346FBF79BFE06B02A462346BDE8F1
:10473000F04DFBF7EDBD284624F0004100223D4638
:104740003B46FBF789FE4FF0FF32FCF717F90646B0
:10475000024653480F460B4606217844FFF798FA65
:1047600032463B46FBF77BFECDE900014D48324621
:104770003B4604217844FFF78BFA32463B46FBF771
:104780006EFE00222B46FBF7C3FD834602913046A6
:10479000394600F0B9FB804643480D46504517DCCA
:1047A000DDE900015A46029BFBF7CBFE42462B4651
:1047B000FBF755FE42462B46FBF7AAFD0122FCF70C
:1047C000DDF8304A304BFBF744FE304A304B4CE0CA
:1047D0004FF0000A52460B464046FBF799FDCDE9E3
:1047E000031052462B4610461946FBF738FE324658
:1047F0003B46FBF731FEDDE90332FBF7A2FE06463E
:104800000F46DDE900015A46029BFBF79AFE8346FC
:104810000091012230463946FCF7B0F8194A1A4B8C
:10482000FBF71AFE06460F46012240462946FCF7D2
:10483000A5F85A46009BFBF712FE32463B46FBF7B3
:1048400008FE06460F46012250462946FCF796F818
:104850000E4DDFF858802A464346FBF7FDFD3246F1
:104860003B46FBF7F9FD2A464346FBF7F5FD002CD6
:10487000D8BF81F0004106B0BDE8F08D0000F03FE8
:104880000000F07F075C143326A6913C182D445499
:10489000FB21F93F0000E03FA0100000B61000002F
:1048A0002A100000401000003333EF3FFB21E93FA6
:1048B0002DE9F84F04460D4621F000400091734960
:1048C000814211DC7249884201DC06D12CB12046BC
:1048D0002946BDE8F84FFFF730BA6E48002DCCBF2F
:1048E0006D496E49BDE8F88F6D49814211DD6D4912
:1048F0008142D8BF4FF0FF366DDD20462946FFF7D5
:10490000A3F9042808BFFFF723FA20462946BDE88B
:10491000F88F6549654F25F00045814233DD6449D4
:10492000814219DD002632464FF080432046294659
:10493000FBF7EEFC80468A46012220462946FCF71A
:104940001DF800223B46FBF784FD42465346FBF729
:10495000F8FD04460D463EE001260022BA463B46DD
:1049600020462946FBF7D4FC80460F4600225346DA
:1049700020462946FBF76DFD42463B46FBF7E1FD2D
:1049800004460D4627E04B4981421BDDDFF828A194
:1049900002260022534620462946FBF760FD0022EE
:1049A0003B46FBF7B5FC80460F46002253462046A7
:1049B0002946FBF74EFD42463B46FBF7C2FD044647
:1049C0000D4608E0032622462B4600203B49FBF714
:1049D000B8FD04460D4622462B4610461946FBF705
:1049E0003EFD8B46824602460B46FBF738FD0746E6
:1049F0000246334888460B4606217844FFF748F9BB
:104A000052465B46FBF72BFD82462E488B463A46C4
:104A1000434605217844FFF73BF93A464346FBF706
:104A20001EFD02460B46002E504659460CDAFBF797
:104A30006FFC22462B46FBF712FD01B022462B46A7
:104A4000BDE8F04FFBF708BDFBF762FC22462B46A2
:104A5000FBF705FD1C4A7A4402EBC603D3E90023A9
:104A6000FBF7F7FC22462B46FBF7F3FC174A7A4488
:104A700002EBC603D3E90023FBF7EEFC009A002A01
:104A8000B8BF81F00041BDE8F88F0000000010447D
:104A90000000F07F182D4454FB21F93FFB21F9BFA2
:104AA0000000DC3F0000203E0000F33F0000F03F2C
:104AB0000000E63F008003400000F83F0000F0BF28
:104AC000420E0000000E00009E0D0000660D00006A
:104AD0002DE9F04D9446CCF1000423F000464CEA59
:104AE0000404524F46EAD4749A46884621F00042A4
:104AF000BC4206D8454240EA050442EAD474BC42AE
:104B000004D9BDE8F04D6246FFF71AB9AAF1405545
:104B1000A5F17F6555EA0C040BD0022404EAAA74BF
:104B2000434DDFF810E144EAD87452EA000B04D098
:104B30000CE0BDE8F04DFFF7BBBE002C14BF012C0C
:104B4000BDE8F08D022C30D0032C32D056EA0C0B8D
:104B50000AD0BE4220D1BA4209D126F0804622F0C6
:104B600080423346114617E000291ADB25E0DFF8C2
:104B7000C8B0FB44002C04BFDBE90001BDE8F08DA8
:104B8000012C02BFDBE9000181F00041BDE8F08D9E
:104B9000022C0AD0032C0CD0BA4212D1B8F1000F6B
:104BA0000BDA23482549BDE8F08D28462449BDE8A5
:104BB000F08D28467146BDE8F08D1D482149BDE8BD
:104BC000F08D921B12153C2AC4BF19481D490EDCFA
:104BD000BAF1000FBEBF12F13C0F0020014606DB08
:104BE0006246FBF7AEFC21F00041FFF761FE002CAE
:104BF00008BFBDE8F08D012C04BF81F00041BDE885
:104C0000F08D114A114B022C07D0FBF722FC2A46EB
:104C1000BDE8F04D0A4BFBF71CBCFBF71AFC2A461B
:104C2000BDE8F04D064BFBF717BC00000000F07F1D
:104C3000182D4454FB2109C0FA0C0000FB21F9BFD8
:104C4000FB210940FB21F93F075C143326A6A13C58
:104C500010B504460420FCF7D1FB0148046010BDE8
:104C60002400002070B5054600244FF47A7603E056
:104C7000304600F005F8641CAC42F9D370BD00006A
:104C800070B54FF0E024002265690949A3690968FD
:104C90004843A1699942FCD002D2A3EB010302E090
:104CA000A5EB010633441A440B468242F1D370BD92
:104CB0002400002038B504468DF8000002230122AC
:104CC00069460248FDF708FA204638BD90020020E8
:104CD00010B504464FF0FF31FBF70EFB0849A1EB7E
:104CE00064042146FBF798FA2146FBF795FA4FF04A
:104CF0007F51FBF78EFA2146BDE81040FBF78CBAD6
:104D0000DF59375FFCF76EF8FEF72CFDFDF7BCFFAF
:104D1000FEF712F9FEF718F8FEF76EF8FEF7A2F8A4
:104D2000FEF7D4F8FEF724F94820FFF791FFFEF7CD
:104D30004BFAFEF73BF900F07DF80120FBF73CFF52
:104D400029A0FEF771FF00BFFDF7AAFE0028FBD1E6
:104D50003C212848FCF74EFD3C212748FCF74AFD42
:104D600000212648FCF710FF0C212448FCF70CFF1B
:104D7000224900200A685063096808642048FEF749
:104D8000CDFB1F481F4A0021C0E902121E4AC0E99C
:104D90000612C0E900117038FEF7C0FB18481B4A24
:104DA00070380021C0E902121A4A1949C0E90412F8
:104DB0000021C0E900113830FEF7B0FB1048002197
:104DC0003838C0E90211C0E90411C0E900111248E5
:104DD000FCF7E0FB11A0FEF727FF00BF00F054F83E
:104DE0000120FFF73FFFF9E76D7075363035300A67
:104DF00000000000B80100204802002070010020DF
:104E00003801002000C072400000F03F0000F83F71
:104E1000B81E85EB51B87E3F00020020696E6974B0
:104E20002066696E69736865640A0000002800DA0C
:104E30004042704710B500210C230CA20846FEF733
:104E4000DFFA0C230BA204210020FEF7D9FA0C2371
:104E50000BA206210120FEF7D3FA0C230621BDE8A0
:104E6000104008A23C20FEF7CBBA0000414E474C50
:104E7000453A000044697374616E63653A0000004E
:104E8000523A20004C3A200038B51948194C4FF0DE
:104E90000C03006810F1FF4F0BD317A20021302044
:104EA000FEF7AEFA206880F00040FBF724FC0222F7
:104EB00008E012A200213020FEF7A2FA2068FBF7DA
:104EC0001AFC0322009202460B4638210020FEF70E
:104ED0008BF80B48062102680420FEF7E8F9094820
:104EE00006210268BDE838400E20FEF7E0B9000058
:104EF0005C000020900000202D0000002B0000002E
:104F0000400000203C0000202DE9F04106460F46FD
:104F1000FBF78EFD041E0D4618BF0120284320F02C
:104F20000040C0F17F6000F1E040C00F0ED0301CA7
:104F300018BF0120384320F00040C0F17F6000F12D
:104F4000E040C00F04BF0120FEF71AFF20462946AB
:104F5000BDE8F0810000000000000000002F00000C
:104F600000000700070000147F147F1400242A7F2C
:104F70002A120062640813230036495522500000AB
:104F80000503000000001C224100000041221C001B
:104F90000014083E08140008083E0808000000A09D
:104FA0006000000808080808000060600000002099
:104FB00010080402003E5149453E0000427F400077
:104FC000004261514946002141454B3100181412FD
:104FD0007F10002745454539003C4A4949300001CA
:104FE0007109050300364949493600064949291E19
:104FF000000036360000000056360000000814227B
:10500000410000141414141400004122140800027A
:105010000151090600324959513E007C1211127C9F
:10502000007F49494936003E41414122007F4141CC
:10503000221C007F49494941007F09090901003EBE
:105040004149497A007F0808087F0000417F4100FC
:10505000002040413F01007F08142241007F404072
:105060004040007F020C027F007F0408107F003E5A
:105070004141413E007F09090906003E4151215E40
:10508000007F091929460046494949310001017F3D
:105090000101003F4040403F001F2040201F003FD3
:1050A0004038403F00631408146300070870080785
:1050B00000615149454300007F41410000552A5598
:1050C0002A55000041417F00000402010204004013
:1050D0004040404000000102040000205454547835
:1050E000007F484444380038444444200038444455
:1050F000487F00385454541800087E0901020018F3
:10510000A4A4A47C007F080404780000447D40002F
:10511000004080847D00007F102844000000417F13
:105120004000007C04180478007C080404780038EF
:105130004444443800FC242424180018242418FC77
:10514000007C0804040800485454542000043F44E0
:105150004020003C4040207C001C2040201C003CA3
:105160004030403C004428102844001CA0A0A07CF3
:10517000004464544C44141414141414000000002B
:10518000000000000000000000000000000000F827
:1051900000000000000000333000000000100C068A
:1051A000100C0600000000000000000040C0784025
:1051B000C0784000043F04043F040400007088FCF1
:1051C00008300000001820FF211E0000F008F00049
:1051D000E018000000211C031E211E0000F00888BA
:1051E000700000001E2123241927211010160E0024
:1051F000000000000000000000000000000000E0CF
:1052000018040200000000071820400000020418E3
:10521000E00000000040201807000000404080F03F
:10522000804040000202010F01020200000000F075
:10523000000000000101011F010101000000000049
:105240000000000080B070000000000000000000BE
:105250000000000000010101010101010000000047
:1052600000000000003030000000000000000000DE
:1052700080601804006018060100000000E01008BB
:105280000810E000000F102020100F00001010F890
:10529000000000000020203F2020000000700808CF
:1052A000088870000030282422213000003008884F
:1052B000884830000018202020110E000000C02077
:1052C00010F8000000070424243F240000F8088898
:1052D000880808000019212020110E0000E0108825
:1052E00088180000000F112020110E000038080857
:1052F000C83808000000003F000000000070880867
:1053000008887000001C222121221C0000E01008E7
:105310000810E0000000312222110F00000000C040
:10532000C0000000000000303000000000000080DD
:1053300000000000000080600000000000008040CD
:1053400020100800000102040810200040404040E6
:105350004040400004040404040404000008102039
:10536000408000000020100804020100007048087E
:105370000808F0000000003036010000C030C828E6
:10538000E810E0000718272423140B000000C038A1
:10539000E0000000203C23020227382008F888881B
:1053A00088700000203F202020110E00C030080827
:1053B00008083800071820202010080008F80808FE
:1053C0000810E000203F202020100F0008F88888F7
:1053D000E8081000203F20202320180008F88888C3
:1053E000E8081000203F200003000000C03008083B
:1053F0000838000007182020221E020008F80800C4
:105400000008F808203F210101213F20000808F88A
:10541000080800000020203F2020000000000808AD
:10542000F8080800C08080807F00000008F888C06D
:1054300028180800203F20012638200008F808001E
:1054400000000000203F20202020300008F8F80055
:10545000F8F80800203F003F003F200008F830C067
:105460000008F808203F200007183F00E010080857
:105470000810E0000F10202020100F0008F8080886
:105480000808F000203F210101010000E010080899
:105490000810E0000F18242438504F0008F88888BE
:1054A00088887000203F2000030C3020007088089E
:1054B000080838000038202121221C00180808F8AC
:1054C000080818000000203F2000000008F808002D
:1054D0000008F808001F202020201F0008788800FE
:1054E00000C83808000007380E010000F80800F86E
:1054F0000008F800033C0700073C03000818688018
:105500008068180820302C03032C30200838C8008D
:10551000C83808000000203F2000000010080808DC
:10552000C83808002038262120201800000000FE7E
:10553000020202000000007F40404000000C30C02A
:1055400000000000000000010638C0000002020256
:10555000FE000000004040407F0000000000040208
:105560000202040000000000000000000000000033
:105570000000000080808080808080800002020423
:10558000000000000000000000000000000080801B
:10559000808000000019242222223F2008F8008089
:1055A00080000000003F112020110E00000000804C
:1055B00080800000000E11202020110000000080DB
:1055C0008088F800000E112020103F20000080800D
:1055D00080800000001F222222221300008080F021
:1055E000888888180020203F20200000000080804C
:1055F00080808000006B94949493600008F8008091
:1056000080800000203F210000203F2000809898EB
:10561000000000000020203F20200000000000804B
:105620009898000000C08080807F000008F800008B
:1056300080808000203F24022D302000000808F8E0
:10564000000000000020203F20200000808080809B
:1056500080808000203F20003F20003F808000802D
:1056600080800000203F210000203F20000080803B
:1056700080800000001F202020201F0080800080EC
:105680008000000080FFA12020110E00000000809B
:1056900080808000000E112020A0FF80808080008C
:1056A0008080800020203F212000010000008080B9
:1056B000808080000033242424241900008080E0AE
:1056C000808000000000001F20200000808000007B
:1056D00000808000001F202020103F20808080005C
:1056E0000080808000010E3008060100808000806C
:1056F000008080800F300C030C300F000080800091
:10570000808080000020312E0E31200080808000BB
:105710000080808080818E7018060100008080806B
:10572000808080000021302C222130000000000009
:10573000807C020200000000003F404000000000AA
:10574000FF00000000000000FF0000000002027CDB
:10575000800000000040403F000000000006010102
:10576000020204040000000000000000000000002D
:105770000000000001020304060708090000000001
:105780000102030400000000555555555555C53F0D
:105790007D6FEB0312D6D4BF5544880E55C1C93F67
:1057A0003B8F68B52882A4BF88B20175E0EF493FFE
:1057B00009F7FD0DE13D023F4B2D8A1C273A03C03E
:1057C000C88A599CE52A004059018D1B6C06E6BF2A
:1057D00082922EB1C5B8B33F4FBB610567ACDD3FC8
:1057E000182D4454FB21E93F9BF681D20B73EF3F08
:1057F000182D4454FB21F93FE2652F227F2B7A3C80
:10580000075C143326A6813CBDCBF07A8807703C38
:10581000075C143326A6913CC4EB98999999C9BFAB
:10582000711623FEC671BCBF6D9A74AFF2B0B3BFE0
:105830009AFDDE522DDEADBF2F6C6A2C44B4A2BFA0
:105840000D5555555555D53FFF8300922449C23F0C
:105850006E204CC5CD45B73F513DD0A0660DB13F40
:10586000EB0D76244B7BA93F11DA22E33AAD903F52
:105870000000000000000000985800080000002010
:1058800078000000603D00081059000878000020F2
:10589000A0060000703D000800004842CDCC4C3E00
:1058A0000000000000000000000000000000803F39
:1058B00000000000000000000000000000000000E8
:1058C00000000000000000000000000000000000D8
:1058D00000000000000000000000000000000000C8
:1058E00000000000000000000000000000000000B8
:1058F0000000000000000000010000001000000097
:10590000000000000024F40000000000000000007F
:04000005080000ED02
:00000001FF
